:100000000BC01CC01BC01AC019C018C017C016C036
:1000100015C014C013C012C011241FBECFEDCDBF38
:1000200010E0A0E6B0E0E2E5F1E003C0C89531964B
:100030000D92A437B107D1F75DD089C0E1CF0F93FE
:100040001F93CF93DF93C0E6D0E0E0E0F0E025E03F
:1000500030E005E010E0DE98DF9880E090E02A30A4
:10006000310511F420E030E04881598148175907E3
:100070000CF4DE9AA22FB32FAA0FBB1FA05ABF4FBA
:100080004D915C91481759070CF4DF9AA3EDB0E34A
:100090001197F1F700C0000001968A309105F9F63A
:1000A0008E2F9F2F602F712F29D0892B59F4DD9A25
:1000B000BFE946E881E0B15040408040E1F700C030
:1000C0000000DD982F5F3F4F31962296EA30F10510
:1000D00011F6DD98DE98DF98ABE7B2E91197F1F7FA
:1000E00000C00000DF91CF911F910F9108958FEF15
:1000F0008ABB08958FEF8ABBA2DFFECF97FB072E46
:1001000016F4009406D077FD08D00BD007FC05D07C
:100110003EF4909581959F4F0895709561957F4F1E
:100120000895AA1BBB1B51E107C0AA1FBB1FA6173E
:10013000B70710F0A61BB70B881F991F5A95A9F790
:1001400080959095682F792F8A2F9B2F0895F8948A
:02015000FFCFDF
:10015200010007000300040006000200040008007A
:040162000200050092
:00000001FF
