:100000000BC080C01BC01AC019C018C017C016C0D2
:1000100015C014C013C012C011241FBECFEDCDBF38
:1000200010E0A0E6B0E0E8ECF1E003C0C89531963E
:100030000D92A437B107D1F796D0C4C0E1CFEF92AB
:10004000FF920F931F93CF93DF9304E110E025E01D
:1000500030E055E0E52EF12CC0E6D0E0E0E0F0E045
:10006000DE98DF9880E090E02A30310511F420E03E
:1000700030E048815981481759070CF4DE9AA22FC5
:10008000B32FAA0FBB1FA05ABF4F4D915C914817C9
:1000900059070CF4DF9AA3EDB0E31197F1F700C014
:1000A000000001968A309105F9F68E2F9F2F6E2D54
:1000B0007F2D5FD0892B59F4DD9ABFE946E881E0B6
:1000C000B15040408040E1F700C00000DD982F5F54
:1000D0003F4F31962296EA30F10511F6DD98DE9811
:1000E000DF98ABE7B2E91197F1F700C000000150CB
:1000F000110909F0B1CFDF91CF911F910F91FF90BE
:10010000EF9008951F920F920FB60F9211242F9324
:100110003F934F935F936F937F938F939F93AF938F
:10012000BF93EF93FF938BDFFF91EF91BF91AF915F
:100130009F918F917F916F915F914F913F912F91FF
:100140000F900FBE0F901F9018958FEF8ABB85B749
:10015000816085BF85B7826085BF8BB780648BBFA8
:100160007894DC9A0895F1DF83E08A95F1F7000036
:10017000FBCF97FB072E16F4009406D077FD08D02E
:100180000BD007FC05D03EF4909581959F4F0895C4
:10019000709561957F4F0895AA1BBB1B51E107C065
:1001A000AA1FBB1FA617B70710F0A61BB70B881F07
:1001B000991F5A95A9F780959095682F792F8A2FC6
:0801C0009B2F0895F894FFCF76
:1001C8000100070003000400060002000400080004
:0401D800020005001C
:00000001FF
