:100000000BC024C080C022C021C020C01FC01EC0A1
:100010001DC01CC01BC01AC011241FBECFEDCDBF18
:1000200010E0A0E6B0E0E6EDF1E003C0C89531963F
:100030000D92A838B107D1F720E0A8E8B0E001C0E0
:100040001D92AC38B207E1F793D0C3C0D9CF65E0B9
:1000500070E082E090E0E0E6F0E040E050E0443123
:10006000510509F442C0DE98DF9820E030E08A3084
:10007000910511F480E090E0A081B181A217B3074F
:100080000CF4DE9AA82FB92FAA0FBB1FA05ABF4F9E
:100090000D90BC91A02DA217B3070CF4DF9AA5EA2E
:1000A000BEE01197F1F700C000002F5F3F4F2436EC
:1000B0003105E9F640FF05C001964F5F5F4F32966C
:1000C000CECF25E030E0C49AA3EDB0E31197F1F76D
:1000D00000C00000C498A3EDB0E31197F1F700C091
:1000E00000002150310979F7E7CFC498DE98DF98F6
:1000F000EBE7F2E93197F1F700C0000061507109B8
:1001000009F0A9CF08951F920F920FB60F921124F4
:100110002F933F934F935F936F937F938F939F930F
:10012000AF93BF93EF93FF93B69901C0CB998FDF45
:10013000FF91EF91BF91AF919F918F917F916F91BF
:100140005F914F913F912F910F900FBE0F901F9095
:10015000189587EF8ABBBC9A85B7816085BF85B744
:10016000826085BF8BB780628BBF7894DC9A0895DC
:10017000F0DF8091880090918900A0918A00B09171
:100180008B00813C9742A940B1054CF060DF109292
:1001900088001092890010928A0010928B0089EFDB
:1001A00090E00197F1F700C00000809188009091E5
:1001B0008900A0918A00B0918B000196A11DB11D0C
:1001C0008093880090938900A0938A00B0938B005D
:0601D000D0CFF894FFCF30
:1001D6000B00480026002A00410016002F00580098
:1001E60016003800090037000C004D002900630096
:0801F60058000A001E0032004F
:00000001FF
